:020000040800F2
:100000006804002065010008CB0C0008910C000872
:10001000C90C000871020008A50D000800000000CE
:10002000000000000000000000000000EF0C0008CD
:100030007302000800000000ED0C0008F10C00083D
:100040007F0100087F0100087F0100087F01000890
:100050007F0100087F0100087F0100087F01000880
:100060007F0100087F0100087F0100087F01000870
:100070007F0100087F0100087F0100087F01000860
:100080007F0100087F0100087F0100087F01000850
:100090007F0100087F0100087F0100087F01000840
:1000A0007F0100087F0100087F0100087F01000830
:1000B0007F0100087F0100087F0100087F01000820
:1000C0007F0100087F0100087F0100087F01000810
:1000D0007F0100087F0100087F0100087F01000800
:1000E0007F0100087F0100087F0100080000000078
:1000F0000000000000000000000000000000000000
:1001000000000000000000007F0100087F010008DF
:100110007F0100087F0100087F0100087F010008BF
:100120007F0100087F0100087F0100087F010008AF
:100130007F01000800000000000000007F010008AF
:100140007F0100087F0100087F0100087F0100088F
:10015000DFF80CD000F07AF800480047C50D000821
:10016000680400200648804706480047FEE7FEE78F
:10017000FEE7FEE7FEE7FEE7FEE7FEE7FEE7FEE757
:10018000510D0008510100082DE9F05F05460020DF
:1001900092469B4688460646814640241BE02846F8
:1001A00041464746224600F020F853465A46C01AB8
:1001B000914110D311461846224600F038F82D1A06
:1001C00067EB01084F4622460120002100F02FF87E
:1001D00017EB00094E41201EA4F10104DFDC484664
:1001E00031462A464346BDE8F09F202A04DB203AE8
:1001F00021FA02F00021704721FA02F3D040C2F147
:1002000020029140084319467047D2B201E000F83D
:10021000012B491EFBD270470022F6E710B51346AA
:100220000A4604461946FFF7F0FF204610BD202A73
:1002300004DB203A00FA02F1002070479140C2F13D
:10024000200320FA03F3194390407047064C074DF2
:1002500006E0E06840F0010394E807009847103496
:10026000AC42F6D3FFF778FF1C0E00083C0E0008E6
:10027000FEE770472DE9F84FDFF890A100220AF160
:10028000040B144601274FF00F090BF1040E00BFB9
:100290000B6807FA04F52B40AB4274D1DFF870C14C
:1002A0004E68A6EB0C0866452BD00DDC032E34D02F
:1002B00005DC36B3012E19D0022E2FD11BE0112EF2
:1002C00016D0122E2AD119E0B8F5881F19D006DCF5
:1002D000B8F5803F15D0B8F5801F1FD111E0B8F5F3
:1002E000001F0ED0B8F5041F18D10AE0CA6815E047
:1002F000CA68121D12E0CA6808320FE0CA680C32E0
:100300000CE08A682AB1012A4FF0080203D0456147
:1003100004E0042202E0056100E00022FF2B01D886
:10032000064601E000F104064FEA840501D9A5F173
:100330002005D6F800C009FA05F82CEA080C02FAE4
:1003400005F54CEA050CC6F800C04D68ED0057D520
:10035000304DAE6946F00106AE61AD6924F003068A
:1003600005F0010500952C4D06EB050CDCF8085056
:10037000A6074FEA167809FA08F6B543274EB042A9
:1003800002D1002610E03BE0254EB04201D101260B
:100390000AE0244EB04201D1022605E0224EB042CE
:1003A00001D1032600E0042606FA08F62E43CCF815
:1003B00008604D68DAF80060ED03554601D51E432C
:1003C00000E09E432E604D68DBF80060AD035D46A3
:1003D00001D51E4300E09E432E604D68DEF80060AC
:1003E000ED02754601D51E4300E09E432E604D6828
:1003F000AD020E4D2E6801D51E4300E09E432E60D7
:10040000641C102CFFF444AFBDE8F88F00040140D9
:1004100000001110001002400000014000080140DF
:10042000000C014000100140001401400C04014088
:100430000148806870470000000000200248816881
:10044000027811448160704700000020074810B511
:10045000016841F010010160032000F067F80020FE
:1004600000F006F800F024F8002010BD0020024043
:1004700070B50D4D04464FF47A712878B1FBF0F059
:100480000A490968B1FBF0F000F0EEFB48B9102C06
:1004900007D200222146501E00F028F800206C6090
:1004A00070BD012070BD0000000000200C00002085
:1004B0000C4808B5816941F001018161816901F051
:1004C00001010091C16941F08051C161C06900F032
:1004D000805000900448416821F0E06141F00071D3
:1004E000416008BD0010024000000140F0B40E4B16
:1004F0001B680C46C3F30223C3F10705042D00D982
:100500000425191D072901D2002300E0DB1E012666
:1005100006FA05F1491E214099409E40761E16407C
:100520003143F0BC00F0D2BB0CED00E0064900F016
:10053000070208684FF6FF03184040EA0220034A0A
:1005400010430860704700000CED00E00000FA0561
:100550002DE9F047DFF8548105460E46D8F8000033
:1005600000F00700B0420CD2D8F8001021F00701CB
:100570003143C8F80010D8F8000000F00700B0427E
:100580006FD128684A4C810712D5400703D56068AF
:1005900040F4E06060602878000703D5606840F4AC
:1005A000605060606068A96820F0F00008436060F7
:1005B0002878C00744D06868012816D0216802282E
:1005C00016D0890700294CDA616821F00301014344
:1005D0006160FFF72DFF6968074641F28830012905
:1005E0000ED00229814618D026E021688903E9E768
:1005F0008901E7E7FFF71CFFC11B494501D918E056
:1006000081466068C0F381000128F3D118E000BF83
:10061000FFF70EFFC11B49450BD86068C0F381008E
:100620000228F5D10CE000BFFFF702FFC11B4945CE
:1006300002D90320BDE8F087606810F00C0FF3D1F9
:10064000D8F80010404601F00701B1420BD901680B
:1006500021F0070131430160006800F00700B0425B
:1006600001D00120E6E72878400705D56068E968F1
:1006700020F4E060084360602878000706D56068D1
:10068000296920F4605040EAC100606000F016F86B
:100690006168084AC1F30311515CC840064908600B
:1006A0000020FFF7E5FE0020C4E700000020024024
:1006B000001002400C0E00080C000020F0B523A230
:1006C00089B00FCA04AC84E80F0024A10FC98DE8DB
:1006D0000F0026494A68264802F00C03042B2FD04D
:1006E000082B2DD104A8C2F38343C45CD00329D5C1
:1006F000C86A00F00F001DF80020C86AC00316D5B4
:10070000C86AC96AC0F30310C1F30321401C891CE5
:10071000A0FB0223A1FB0416154F0025A1FB070C2B
:1007200006FB07C601FB0561FFF72EFD03E010483D
:100730006043B0FBF2F09DF81D10A14200D14008CB
:1007400009B0F0BD0B486043FAE700000000040563
:100750000607080900000000000D00000102030464
:1007600005060708090A0B0C0D0E0F1000100240B9
:1007700000127A0000093D002DE9F84F0446007888
:10078000EA4DC00748D06868C0F38100012807D04F
:100790006868C0F38100022809D16868C00306D5E3
:1007A0002868800338D5A06800286FD034E0A0689E
:1007B000B0F5803F0BD010B1B0F5A02F11D0286854
:1007C00020F480302860286820F4802002E0286827
:1007D00040F480302860A06888B1FFF729FE064603
:1007E00009E0286840F480202860F0E7FFF720FE49
:1007F000801B642878D828688003F7D50CE0FFF7C1
:1008000017FE064605E000BFFFF712FE801B6428B6
:10081000F0D828688003F7D42078C54E80074FF0C1
:1008200001094FF000073CD5686810F00C0F07D0A5
:100830006868C0F38100022809D16868C00306D443
:100840002868800715D5606901281FD111E060690B
:10085000B8B1C6F80090FFF7EBFD804606E000BF98
:10086000FFF7E6FDA0EB08000228C3D82868800740
:10087000F6D52868A16920F0F80040EAC100286098
:100880000FE03760FFF7D4FD804607E02DE100BFA1
:10089000FFF7CEFDA0EB08000228ABD82868800740
:1008A000F6D4207800072ED5A248E169E9B1C0F856
:1008B0000090FFF7BDFD804606E000BFFFF7B8FDE2
:1008C000A0EB0800022895D8686A8007F6D59A48F8
:1008D0004FF4FA510068B0FBF1F0009000BF0098AF
:1008E000411E0091FAD20EE0B0E00760FFF7A0FDD4
:1008F000804605E0FFF79CFDA0EB0800022887D8A2
:10090000686A8007F6D42078400763D5E8694FF01D
:100910000008C00009D4E86940F08050E861E86947
:100920004FF0010800F08050009084480168C9052C
:1009300012D40168834641F480710160FFF778FDAD
:10094000824605E0FFF774FDA0EB0A0064287DD81D
:10095000DBF80000C005F5D5206901280AD008B1F0
:10096000052813D0286A20F001002862286A20F0A8
:10097000040002E0286A40F001002862206941F288
:10098000883B98B1FFF754FD82460BE0286A40F09F
:1009900004002862EEE700BFFFF74AFDA0EB0A0162
:1009A000594553D8286A8007F6D50CE0FFF740FD7B
:1009B000824605E0FFF73CFDA0EB0A01594545D80A
:1009C000286A8007F6D4B8F1000F03D0E86920F058
:1009D0008050E861E06AD0B36968C90307D56968E7
:1009E000C1F38101022902D1E96AC9037DD4022839
:1009F00008D0E86A20F48030E862B766FFF718FD97
:100A000080463BE02868C00005D5E86A616B00F0CD
:100A1000F000884269D1B766FFF70AFD804605E01D
:100A2000FFF706FDA0EB0800642874D828680001D1
:100A3000F6D4E86A616B20F0F0000843E862E86AE7
:100A4000216B20F470600843E86201E063E018E085
:100A5000C6F86890FFF7ECFC804605E0FFF7E8FC7D
:100A6000A0EB0800642856D828680001F6D508E0F5
:100A7000FFF7DEFCA0EB080064284CD828680001D2
:100A8000F6D4206A90B36968C1F3810102294AD083
:100A90000228376603D0FFF7CBFC04463EE0FFF7A1
:100AA000C7FC074605E000BFFFF7C2FCC01B0228D9
:100AB00031D828688001F7D4606AB0F5803F09D149
:100AC000E86A61680843E862E86AE16820F00F00BC
:100AD0000843E862D4E909010843696821F4741104
:100AE00008436860C6F8609001E01CE019E0FFF779
:100AF0009FFC044605E000BFFFF79AFC001B02289C
:100B000009D828688001F7D50BE000BFFFF790FCFB
:100B1000001B022802D90320BDE8F88F2868800155
:100B2000F4D40020F8E70120F6E7000000100240AE
:100B300000004242800442420C000020007000404D
:100B400070B5040005D00025A56294F8510010B1DD
:100B500004E0012070BD204600F034F8022084F843
:100B600051002068016821F040010160D4E90101D1
:100B70000843D4E903121143084361690843218BF8
:100B800001F400710843E1690843216A0843A16A3E
:100B9000084321680860A069042101EA1040616AE5
:100BA0000843216848602168E06A08612068C169DB
:100BB00021F40061C1616565012084F851000020C5
:100BC00070BD000070B586B00024009401940294BA
:100BD000039400681F49884239D11F48C16941F414
:100BE0000041C161C16901F400410491816941F092
:100BF00004018161816901F004010491816941F07E
:100C0000100181618069022500F01000049010201D
:100C1000CDE900050326694603961048FFF72AFB35
:100C20004FF4A050CDE900050D4D694603962846C6
:100C3000FFF720FBE814CDE900046946284602943A
:100C4000FFF718FB0748416841F0B851416006B012
:100C500070BD0000003C0040001002400008014050
:100C6000001001400000014010B5401EB0F1807F2F
:100C700001D3012010BD4FF0E02460610F21601707
:100C800000F024F80020A06107202061002010BDA2
:100C9000FEE700000B480A494FF4802201604FF440
:100CA0008271416000218160C1600161C0E905126B
:100CB000C1610162416281620A21C162FFF740BFE6
:100CC000003C004010000020FEE770470907090EB5
:100CD000002806DA00F00F0000F1E02080F8141D73
:100CE000704700F1E02080F80014704770477047AB
:100CF000FFF7A4BB70B594B038216846FFF78CFAB3
:100D000014210EA8FFF788FA012500242804CDE954
:100D100002040226CDE908600095059501944FF480
:100D2000E010CDE90A046846FFF726FD0F20CDE963
:100D30000E06A802CDE9104002210EA81294FFF77A
:100D400007FC0248056714B070BD00000000424275
:100D50001048016841F00101016041680E4A1140EC
:100D6000416001680D4A11400160016821F4802151
:100D70000160416821F4FE014160016821F0A05149
:100D800001604FF47F0181600021C1620449C0030A
:100D900008607047001002400000FFF0FFFFF6FE01
:100DA00008ED00E0FEE702E008C8121F08C1002AB3
:100DB000FAD170477047002001E001C1121F002ADC
:100DC000FBD1704708B5FFF741FBFFF793FF0E48D3
:100DD000816941F020018161816901F02001009168
:100DE000816941F004018161816901F00401009190
:100DF000816941F010018161806900F0100000906C
:100E0000FFF748FFFEE7000000100240000000006E
:100E10000000000001020304060708093C0E000858
:100E20000000002010000000A60D00084C0E000875
:100E30001000002058040000B60D0008010000005A
:0C0E4000100000000000000000A24A04A6
:04000005080001519D
:00000001FF
